:100000000C9462000C948A000C948A000C948A0070
:100010000C948A000C948A000C948A000C948A0038
:100020000C948A000C948A000C948A000C948A0028
:100030000C948A000C948A000C948A000C948A0018
:100040000C94BD020C948A000C942D030C940703AD
:100050000C948A000C948A000C948A000C948A00F8
:100060000C948A000C948A000000000024002700F1
:100070002A0000000000250028002B0000000008D6
:10008000000201000003040700000000000000005F
:1000900000000000230026002900040404040404D6
:1000A0000404020202020202030303030303010227
:1000B00004081020408001020408102001020408F6
:1000C0001020800411241FBECFEFD8E0DEBFCDBFCB
:1000D00011E0A0E0B1E0EEEAF9E002C005900D9277
:1000E000A631B107D9F721E0A6E1B1E001C01D9228
:1000F000A23CB207E1F710E0C2E6D0E004C02197CD
:10010000FE010E94CF04C136D107C9F70E94A403A3
:100110000C94D5040C940000AF92BF92CF92DF9262
:10012000EF92FF920F931F93CF93DF936C017B01AC
:100130008B01040F151FEB015E01AE18BF08C0173D
:10014000D10759F06991D601ED91FC910190F081B0
:10015000E02DC6010995892B79F7C501DF91CF9173
:100160001F910F91FF90EF90DF90CF90BF90AF90D5
:100170000895FC01538D448D252F30E0842F90E0AD
:10018000821B930B541710F0CF9608950197089592
:10019000FC01918D828D981761F0A28DAE0FBF2F5B
:1001A000B11D5D968C91928D9F5F9F73928F90E0B1
:1001B00008958FEF9FEF0895FC01918D828D981720
:1001C00031F0828DE80FF11D858D90E008958FEF5D
:1001D0009FEF0895FC01918D228D892F90E0805C26
:1001E0009F4F821B91098F739927089585E291E0B3
:1001F0000E94EA0021E0892B09F420E0822F089573
:1002000080E090E0892B29F00E94F60081110C9487
:1002100000000895FC01A48DA80FB92FB11DA35AA9
:10022000BF4F2C91848D90E001968F739927848F16
:10023000A689B7892C93A089B1898C918370806439
:100240008C93938D848D981306C00288F389E02DDA
:1002500080818F7D80830895EF92FF920F931F938B
:10026000CF93DF93EC0181E0888F9B8D8C8D981369
:100270001AC0E889F989808185FF15C09FB7F89475
:10028000EE89FF896083E889F989808183708064C1
:1002900080839FBF81E090E0DF91CF911F910F910C
:1002A000FF90EF900895F62E0B8D10E00F5F1F4F1B
:1002B0000F731127E02E8C8D8E110CC00FB607FC2A
:1002C000FACFE889F989808185FFF5CFCE010E94B8
:1002D0000A01F1CFEB8DEC0FFD2FF11DE35AFF4F1B
:1002E000F0829FB7F8940B8FEA89FB898081806246
:1002F000CFCFCF93DF93EC01888D8823B9F0AA8903
:10030000BB89E889F9898C9185FD03C0808186FDD0
:100310000DC00FB607FCF7CF8C9185FFF2CF80811F
:1003200085FFEDCFCE010E940A01E9CFDF91CF9189
:10033000089590E0FC01E458FF4F2491FC01E25540
:10034000FF4F3491FC01E656FF4FE491EE23C9F0D4
:10035000222339F0233001F1A8F4213019F12230A1
:1003600029F1F0E0EE0FFF1FEE58FF4FA591B49179
:100370008FB7F894EC91611126C030953E233C93E1
:100380008FBF08952730A9F02830C9F0243049F7ED
:10039000809180008F7D03C0809180008F77809353
:1003A0008000DFCF84B58F7784BDDBCF84B58F7DB0
:1003B000FBCF8091B0008F778093B000D2CF809137
:1003C000B0008F7DF9CF3E2BDACFCF93DF9390E053
:1003D000FC01E255FF4F249186569F4FFC0184910A
:1003E0008823D1F090E0880F991FFC01E859FF4F56
:1003F000A591B491FC01EE58FF4FC591D4916111C4
:100400000EC09FB7F8948C91E22FE0958E238C93C9
:100410002881E223E8839FBFDF91CF9108958FB7B2
:10042000F894EC91E22BEC938FBFF6CF8F929F92D2
:10043000AF92BF920F931F93CF93DF93CDB7DEB7E9
:10044000A1970FB6F894DEBF0FBECDBF19A2423000
:1004500008F44AE08E010F5D1F4F842E912CB12CC1
:10046000A12CA50194010E94AD04E62FB901CA0197
:10047000EA3044F5E05DD801EE938D01232B242B67
:10048000252B79F790E080E0109769F0FD0101904D
:100490000020E9F73197AF014A1B5B0BBD0185E2F4
:1004A00091E00E948C00A1960FB6F894DEBF0FBEBB
:1004B000CDBFDF91CF911F910F91BF90AF909F90D3
:1004C0008F900895E95CD7CFCF92DF92EF92FF92A1
:1004D000CF93DF936C01990FEE08FF08F7FE23C05E
:1004E0006DE285E291E00E942C01EC0166277727FE
:1004F000CB016C197D098E099F094AE00E94160202
:10050000C80FD91F42E050E062E171E085E291E05E
:100510000E948C008C0F9D1FDF91CF91FF90EF9078
:10052000DF90CF9008954AE0C701B6010E941602FD
:10053000EC01E8CF0F931F93E6EBF0E06491E2EA61
:10054000F0E0E491F0E0EE0FFF1FE057FF4F8591E0
:10055000949100E412E42FE030E040E00E945F0359
:10056000611571058105910529F06F5F7F4F8F4FF0
:100570009F4F9F701F910F9108951F920F920FB67A
:100580000F9211242F933F938F939F93AF93BF9319
:100590008091210190912201A0912301B091240129
:1005A0003091200123E0230F2D3758F50196A11D2E
:1005B000B11D209320018093210190932201A093EB
:1005C0002301B093240180911C0190911D01A09101
:1005D0001E01B0911F010196A11DB11D80931C0148
:1005E00090931D01A0931E01B0931F01BF91AF9185
:1005F0009F918F913F912F910F900FBE0F901F9061
:10060000189526E8230F0296A11DB11DD2CF1F9287
:100610000F920FB60F9211242F933F934F935F9336
:100620006F937F938F939F93AF93BF93EF93FF93BA
:1006300085E291E00E940A01FF91EF91BF91AF9195
:100640009F918F917F916F915F914F913F912F91EA
:100650000F900FBE0F901F9018951F920F920FB61C
:100660000F9211242F938F939F93EF93FF93E09119
:100670003501F09136018081E0913B01F0913C0120
:1006800082FD1BC0908180913E018F5F8F7320910E
:100690003F01821741F0E0913E01F0E0EB5DFE4F3B
:1006A000958F80933E01FF91EF919F918F912F91B4
:1006B0000F900FBE0F901F9018958081F4CFCF92AE
:1006C000DF92EF92FF920F931F93E82FF92F05C04F
:1006D000015011092109310961F190819623941784
:1006E000B9F305C0015011092109310911F19081B7
:1006F00096239413F7CFC12CD12CE12CF12C0AC0F6
:100700008FEFC81AD80AE80AF80A0C151D052E053D
:100710003F0579F080818623841791F36C2D7D2D20
:100720008E2D9F2D1F910F91FF90EF90DF90CF9016
:10073000089560E070E080E090E01F910F91FF90DD
:10074000EF90DF90CF900895789484B5826084BD57
:1007500084B5816084BD85B5826085BD85B58160C5
:1007600085BD80916E00816080936E001092810043
:1007700080918100826080938100809181008160FE
:1007800080938100809180008160809380008091BF
:10079000B10084608093B1008091B000816080934B
:1007A000B00080917A00846080937A0080917A0012
:1007B000826080937A0080917A00816080937A00D1
:1007C00080917A00806880937A001092C100E09155
:1007D0003501F091360182E08083E0913101F091A2
:1007E00032011082E0913301F09134018FEC80836B
:1007F00010923D01E0913901F0913A0186E0808349
:10080000E0913701F0913801808180618083E0912F
:100810003701F0913801808188608083E091370151
:10082000F0913801808180688083E0913701F091F8
:10083000380180818F7D808361E084E00E94E50142
:1008400061E085E00E94E50161E086E00E94E5014B
:1008500061E087E00E94E50160E088E00E94E50138
:1008600061E084E00E94990161E085E00E949901C5
:10087000C0E0D0E060E086E00E94990160E087E09F
:100880000E9499010E949A0270931B0160931A01C1
:1008900061E086E00E94990161E087E00E94990191
:1008A0000E949A02709319016093180160E086E03B
:1008B0000E94990161E087E00E9499010E949A02DA
:1008C000709317016093160180911A0190911B019A
:1008D0000E94640280911801909119010E946402A3
:1008E00080911601909117010E946402209711F2E5
:1008F0000E94F600882309F4BDCF0E940000BACF01
:10090000E5E2F1E01382128288EE93E0A0E0B0E02D
:1009100084839583A683B78384E091E09183808369
:1009200085EC90E09587848784EC90E097878687B4
:1009300080EC90E0918B808B81EC90E0938B828BAC
:1009400082EC90E0958B848B86EC90E0978B868B85
:10095000118E128E138E148E0895A1E21A2EAA1BE8
:10096000BB1BFD010DC0AA1FBB1FEE1FFF1FA2175F
:10097000B307E407F50720F0A21BB30BE40BF50B5C
:10098000661F771F881F991F1A9469F760957095E5
:10099000809590959B01AC01BD01CF010895EE0FAC
:0E09A000FF1F0590F491E02D0994F894FFCF0D
:1009AE00000000002C018C00B9007901EA00C8009B
:0609BE00DC000D0A000040
:00000001FF
